2009-08-03 19:56:37.683157 IP (tos 0x0, ttl  64, id 39370, offset 0, flags [DF], proto 6, length: 66) 75.126.27.210.42819 > 75.126.27.210.11211: tcp 26
         0x0000:  4500 0042 99ca 4000 4006 d24b 4b7e 1bd2  E..B..@.@..KK~..
         0x0010:  4b7e 1bd2 a743 2bcb 5313 3bb8 52f7 3bc1  K~...C+.S.;.R.;.
         0x0020:  5018 7fff ced4 0000 6765 7420 323a 6f70  P.......get.2:op
         0x0030:  7469 6f6e 733a 616c 6c6f 7074 696f 6e73  tions:alloptions
         0x0040:  0d0a                                     ..
